{
  "abi": [
    {
      "type": "constructor",
      "inputs": [
        {
          "name": "_accountFactory",
          "type": "address",
          "internalType": "contract AccountFactory"
        }
      ],
      "stateMutability": "nonpayable"
    },
    {
      "type": "function",
      "name": "accountFactory",
      "inputs": [],
      "outputs": [
        {
          "name": "",
          "type": "address",
          "internalType": "contract AccountFactory"
        }
      ],
      "stateMutability": "view"
    },
    {
      "type": "function",
      "name": "forwardSend",
      "inputs": [
        {
          "name": "to",
          "type": "address",
          "internalType": "address payable"
        },
        {
          "name": "toEmailHash",
          "type": "bytes32",
          "internalType": "bytes32"
        }
      ],
      "outputs": [],
      "stateMutability": "payable"
    }
  ],
  "bytecode": {
    "object": "0x6080604052600180546001600160a01b0319169055348015601f57600080fd5b506040516103a93803806103a9833981016040819052603c916060565b600080546001600160a01b0319166001600160a01b0392909216919091179055608e565b600060208284031215607157600080fd5b81516001600160a01b0381168114608757600080fd5b9392505050565b61030c8061009d6000396000f3fe6080604052600436106100295760003560e01c8063687cd9c11461002e5780636caaa76b1461006a575b600080fd5b34801561003a57600080fd5b5060005461004e906001600160a01b031681565b6040516001600160a01b03909116815260200160405180910390f35b61007d610078366004610286565b61007f565b005b6001600160a01b0382161561013257600080836001600160a01b03163460405160006040518083038185875af1925050503d80600081146100dc576040519150601f19603f3d011682016040523d82523d6000602084013e6100e1565b606091505b50915091508161012f5760405162461bcd60e51b81526020600482015260146024820152732330b4b632b2103a379039b2b7321022ba3432b960611b60448201526064015b60405180910390fd5b50505b6001600160a01b03821615801561014857508015155b61015157600080fd5b6000805460015460405163119709c360e31b81526001600160a01b03918216600482015260248101859052911690638cb84e1890604401602060405180830381865afa1580156101a5573d6000803e3d6000fd5b505050506040513d601f19601f820116820180604052508101906101c991906102b2565b9050600080826001600160a01b03163460405160006040518083038185875af1925050503d8060008114610219576040519150601f19603f3d011682016040523d82523d6000602084013e61021e565b606091505b5091509150816102675760405162461bcd60e51b81526020600482015260146024820152732330b4b632b2103a379039b2b7321022ba3432b960611b6044820152606401610126565b5050505050565b6001600160a01b038116811461028357600080fd5b50565b6000806040838503121561029957600080fd5b82356102a48161026e565b946020939093013593505050565b6000602082840312156102c457600080fd5b81516102cf8161026e565b939250505056fea2646970667358221220f04c8b70b8a774dc64542dfc489834b0a4e91cdb35bf8219a3e8978696a19aa864736f6c63430008190033",
    "linkReferences": {}
  },
  "methodIdentifiers": {
    "accountFactory()": "687cd9c1",
    "forwardSend(address,bytes32)": "6caaa76b"
  },
  "id": 57
}