{
  "abi": [
    {
      "type": "constructor",
      "inputs": [
        {
          "name": "_accountFactory",
          "type": "address",
          "internalType": "contract AccountFactory"
        }
      ],
      "stateMutability": "nonpayable"
    },
    {
      "type": "function",
      "name": "accountFactory",
      "inputs": [],
      "outputs": [
        {
          "name": "",
          "type": "address",
          "internalType": "contract AccountFactory"
        }
      ],
      "stateMutability": "view"
    },
    {
      "type": "function",
      "name": "codeNonce",
      "inputs": [],
      "outputs": [
        {
          "name": "",
          "type": "uint256",
          "internalType": "uint256"
        }
      ],
      "stateMutability": "view"
    },
    {
      "type": "function",
      "name": "codeToValue",
      "inputs": [
        {
          "name": "",
          "type": "uint256",
          "internalType": "uint256"
        }
      ],
      "outputs": [
        {
          "name": "to",
          "type": "address",
          "internalType": "address"
        },
        {
          "name": "value",
          "type": "uint256",
          "internalType": "uint256"
        }
      ],
      "stateMutability": "view"
    },
    {
      "type": "function",
      "name": "forwardSend",
      "inputs": [
        {
          "name": "to",
          "type": "address",
          "internalType": "address payable"
        },
        {
          "name": "toEmailHash",
          "type": "bytes32",
          "internalType": "bytes32"
        }
      ],
      "outputs": [],
      "stateMutability": "payable"
    },
    {
      "type": "function",
      "name": "fulfillCode",
      "inputs": [
        {
          "name": "code",
          "type": "uint256",
          "internalType": "uint256"
        }
      ],
      "outputs": [],
      "stateMutability": "payable"
    },
    {
      "type": "function",
      "name": "readCodeToValue",
      "inputs": [
        {
          "name": "code",
          "type": "uint256",
          "internalType": "uint256"
        }
      ],
      "outputs": [
        {
          "name": "",
          "type": "uint256",
          "internalType": "uint256"
        }
      ],
      "stateMutability": "view"
    },
    {
      "type": "function",
      "name": "requestTransfer",
      "inputs": [
        {
          "name": "value",
          "type": "uint256",
          "internalType": "uint256"
        }
      ],
      "outputs": [
        {
          "name": "",
          "type": "uint256",
          "internalType": "uint256"
        }
      ],
      "stateMutability": "nonpayable"
    }
  ],
  "bytecode": {
    "object": "0x6080604052600180546001600160a01b03191690556206a41f600355348015602657600080fd5b506040516106193803806106198339810160408190526043916067565b600080546001600160a01b0319166001600160a01b03929092169190911790556095565b600060208284031215607857600080fd5b81516001600160a01b0381168114608e57600080fd5b9392505050565b610575806100a46000396000f3fe6080604052600436106100705760003560e01c8063687cd9c11161004e578063687cd9c1146100e35780636caaa76b1461011b5780638a921a9a1461012e578063c2a81ad11461014e57600080fd5b806330bc07c81461007557806346faf2151461009e57806356aee4c4146100ce575b600080fd5b34801561008157600080fd5b5061008b60035481565b6040519081526020015b60405180910390f35b3480156100aa57600080fd5b5061008b6100b9366004610497565b60009081526002602052604090206001015490565b6100e16100dc366004610497565b6101ad565b005b3480156100ef57600080fd5b50600054610103906001600160a01b031681565b6040516001600160a01b039091168152602001610095565b6100e16101293660046104c8565b6102d0565b34801561013a57600080fd5b5061008b610149366004610497565b610430565b34801561015a57600080fd5b5061018e610169366004610497565b600260205260009081526040902080546001909101546001600160a01b039091169082565b604080516001600160a01b039093168352602083019190915201610095565b600081815260026020908152604091829020825180840190935280546001600160a01b0316835260010154908201819052348111156102285760405162461bcd60e51b8152602060048201526012602482015271496e73756666696369656e742076616c756560701b60448201526064015b60405180910390fd5b60008083600001516001600160a01b0316836040515b60006040518083038185875af1925050503d806000811461027b576040519150601f19603f3d011682016040523d82523d6000602084013e610280565b606091505b5091509150816102c95760405162461bcd60e51b81526020600482015260146024820152732330b4b632b2103a379039b2b7321022ba3432b960611b604482015260640161021f565b5050505050565b6001600160a01b0382161561038157600080836001600160a01b03163460405160006040518083038185875af1925050503d806000811461032d576040519150601f19603f3d011682016040523d82523d6000602084013e610332565b606091505b50915091508161037b5760405162461bcd60e51b81526020600482015260146024820152732330b4b632b2103a379039b2b7321022ba3432b960611b604482015260640161021f565b50505050565b6001600160a01b03821615801561039757508015155b6103a057600080fd5b6000805460015460405163119709c360e31b81526001600160a01b03918216600482015260248101859052911690638cb84e1890604401602060405180830381865afa1580156103f4573d6000803e3d6000fd5b505050506040513d601f19601f8201168201806040525081019061041891906104f4565b9050600080826001600160a01b03163460405161023e565b600380546000918261044183610518565b909155505060408051808201825233815260208082019485526003805460009081526002909252929020905181546001600160a01b0319166001600160a01b039091161781559251600190930192909255505490565b6000602082840312156104a957600080fd5b5035919050565b6001600160a01b03811681146104c557600080fd5b50565b600080604083850312156104db57600080fd5b82356104e6816104b0565b946020939093013593505050565b60006020828403121561050657600080fd5b8151610511816104b0565b9392505050565b60006001820161053857634e487b7160e01b600052601160045260246000fd5b506001019056fea26469706673582212208b3a1bbd25884f1bfff2a66ba6960ddb685609509013c4522de3d552ca31bcd764736f6c63430008190033",
    "linkReferences": {}
  },
  "methodIdentifiers": {
    "accountFactory()": "687cd9c1",
    "codeNonce()": "30bc07c8",
    "codeToValue(uint256)": "c2a81ad1",
    "forwardSend(address,bytes32)": "6caaa76b",
    "fulfillCode(uint256)": "56aee4c4",
    "readCodeToValue(uint256)": "46faf215",
    "requestTransfer(uint256)": "8a921a9a"
  },
  "id": 62
}